{
  "_format": "hh-sol-artifact-1",
  "contractName": "Lottery",
  "sourceName": "contracts/Lottery.sol",
  "abi": [
    {
      "inputs": [],
      "stateMutability": "nonpayable",
      "type": "constructor"
    },
    {
      "inputs": [],
      "name": "enter",
      "outputs": [],
      "stateMutability": "payable",
      "type": "function"
    },
    {
      "inputs": [],
      "name": "getParticipants",
      "outputs": [
        {
          "internalType": "address[]",
          "name": "",
          "type": "address[]"
        }
      ],
      "stateMutability": "view",
      "type": "function"
    },
    {
      "inputs": [],
      "name": "manager",
      "outputs": [
        {
          "internalType": "address",
          "name": "",
          "type": "address"
        }
      ],
      "stateMutability": "view",
      "type": "function"
    },
    {
      "inputs": [
        {
          "internalType": "uint256",
          "name": "",
          "type": "uint256"
        }
      ],
      "name": "participants",
      "outputs": [
        {
          "internalType": "address",
          "name": "",
          "type": "address"
        }
      ],
      "stateMutability": "view",
      "type": "function"
    },
    {
      "inputs": [],
      "name": "pickWinner",
      "outputs": [],
      "stateMutability": "nonpayable",
      "type": "function"
    },
    {
      "inputs": [],
      "name": "winner_address",
      "outputs": [
        {
          "internalType": "address",
          "name": "",
          "type": "address"
        }
      ],
      "stateMutability": "view",
      "type": "function"
    }
  ],
  "bytecode": "0x6080604052348015600f57600080fd5b50336000806101000a81548173ffffffffffffffffffffffffffffffffffffffff021916908373ffffffffffffffffffffffffffffffffffffffff160217905550610ad38061005f6000396000f3fe6080604052600436106100555760003560e01c806335c1d3491461005a578063481c6a75146100975780635aa68ac0146100c25780635d495aea146100ed578063b12aa6a414610104578063e97dcb621461012f575b600080fd5b34801561006657600080fd5b50610081600480360381019061007c91906105ef565b610139565b60405161008e919061065d565b60405180910390f35b3480156100a357600080fd5b506100ac610178565b6040516100b9919061065d565b60405180910390f35b3480156100ce57600080fd5b506100d761019c565b6040516100e49190610736565b60405180910390f35b3480156100f957600080fd5b5061010261022a565b005b34801561011057600080fd5b50610119610403565b604051610126919061065d565b60405180910390f35b610137610429565b005b6002818154811061014957600080fd5b906000526020600020016000915054906101000a900473ffffffffffffffffffffffffffffffffffffffff1681565b60008054906101000a900473ffffffffffffffffffffffffffffffffffffffff1681565b6060600280548060200260200160405190810160405280929190818152602001828054801561022057602002820191906000526020600020905b8160009054906101000a900473ffffffffffffffffffffffffffffffffffffffff1673ffffffffffffffffffffffffffffffffffffffff16815260200190600101908083116101d6575b5050505050905090565b60008054906101000a900473ffffffffffffffffffffffffffffffffffffffff1673ffffffffffffffffffffffffffffffffffffffff163373ffffffffffffffffffffffffffffffffffffffff16146102b8576040517f08c379a00000000000000000000000000000000000000000000000000000000081526004016102af906107db565b60405180910390fd5b60006002805490506102c86104d7565b6102d2919061082a565b90506000600282815481106102ea576102e961085b565b5b9060005260206000200160009054906101000a900473ffffffffffffffffffffffffffffffffffffffff16905080600160006101000a81548173ffffffffffffffffffffffffffffffffffffffff021916908373ffffffffffffffffffffffffffffffffffffffff1602179055508073ffffffffffffffffffffffffffffffffffffffff166108fc479081150290604051600060405180830381858888f1935050505015801561039e573d6000803e3d6000fd5b50600067ffffffffffffffff8111156103ba576103b961088a565b5b6040519080825280602002602001820160405280156103e85781602001602082028036833780820191505090505b50600290805190602001906103fe92919061050d565b505050565b600160009054906101000a900473ffffffffffffffffffffffffffffffffffffffff1681565b662386f26fc100003414610472576040517f08c379a000000000000000000000000000000000000000000000000000000000815260040161046990610905565b60405180910390fd5b6002339080600181540180825580915050600190039060005260206000200160009091909190916101000a81548173ffffffffffffffffffffffffffffffffffffffff021916908373ffffffffffffffffffffffffffffffffffffffff160217905550565b6000444260026040516020016104ef93929190610a64565b6040516020818303038152906040528051906020012060001c905090565b828054828255906000526020600020908101928215610586579160200282015b828111156105855782518260006101000a81548173ffffffffffffffffffffffffffffffffffffffff021916908373ffffffffffffffffffffffffffffffffffffffff1602179055509160200191906001019061052d565b5b5090506105939190610597565b5090565b5b808211156105b0576000816000905550600101610598565b5090565b600080fd5b6000819050919050565b6105cc816105b9565b81146105d757600080fd5b50565b6000813590506105e9816105c3565b92915050565b600060208284031215610605576106046105b4565b5b6000610613848285016105da565b91505092915050565b600073ffffffffffffffffffffffffffffffffffffffff82169050919050565b60006106478261061c565b9050919050565b6106578161063c565b82525050565b6000602082019050610672600083018461064e565b92915050565b600081519050919050565b600082825260208201905092915050565b6000819050602082019050919050565b6106ad8161063c565b82525050565b60006106bf83836106a4565b60208301905092915050565b6000602082019050919050565b60006106e382610678565b6106ed8185610683565b93506106f883610694565b8060005b8381101561072957815161071088826106b3565b975061071b836106cb565b9250506001810190506106fc565b5085935050505092915050565b6000602082019050818103600083015261075081846106d8565b905092915050565b600082825260208201905092915050565b7f4f6e6c7920746865206d616e616765722063616e2063616c6c2074686973206660008201527f756e6374696f6e00000000000000000000000000000000000000000000000000602082015250565b60006107c5602783610758565b91506107d082610769565b604082019050919050565b600060208201905081810360008301526107f4816107b8565b9050919050565b7f4e487b7100000000000000000000000000000000000000000000000000000000600052601260045260246000fd5b6000610835826105b9565b9150610840836105b9565b9250826108505761084f6107fb565b5b828206905092915050565b7f4e487b7100000000000000000000000000000000000000000000000000000000600052603260045260246000fd5b7f4e487b7100000000000000000000000000000000000000000000000000000000600052604160045260246000fd5b7f54686520657861637420616d6f756e7420697320302e30310000000000000000600082015250565b60006108ef601883610758565b91506108fa826108b9565b602082019050919050565b6000602082019050818103600083015261091e816108e2565b9050919050565b6000819050919050565b61094061093b826105b9565b610925565b82525050565b600081549050919050565b600081905092915050565b60008190508160005260206000209050919050565b61097a8161063c565b82525050565b600061098c8383610971565b60208301905092915050565b60008160001c9050919050565b600073ffffffffffffffffffffffffffffffffffffffff82169050919050565b60006109d86109d383610998565b6109a5565b9050919050565b60006109eb82546109c5565b9050919050565b6000600182019050919050565b6000610a0a82610946565b610a148185610951565b9350610a1f8361095c565b8060005b83811015610a5757610a34826109df565b610a3e8882610980565b9750610a49836109f2565b925050600181019050610a23565b5085935050505092915050565b6000610a70828661092f565b602082019150610a80828561092f565b602082019150610a9082846109ff565b915081905094935050505056fea26469706673582212202f017ebb54e76265b21807bf918c3f9292ad3934b6e3f2ff6146a23f67ede80f64736f6c634300081c0033",
  "linkReferences": {},
  "deployedLinkReferences": {}
}